:020000040800F2
:1000000068080020AD010008E13200089D2A0008C0
:10001000A132000829090008453B00080000000043
:10002000000000000000000000000000BD340008D7
:10003000390B000800000000E3320008DD3400083E
:10004000C7010008C7010008C7010008C701000870
:10005000C7010008C7010008C7010008C701000860
:10006000C7010008C7010008C7010008C701000850
:10007000C7010008C7010008C7010008C701000840
:10008000C7010008C7010008C70100080000000000
:10009000000000000000000000000000C701000890
:1000A000C7010008C7010008C7010008C701000810
:1000B000C7010008813500088D350008C701000818
:1000C000C7010008C7010008C7010008C7010008F0
:1000D000C7010008C7010008D53A00080000000069
:1000E000C7010008C7010008C701000800000000A0
:1000F000000000000000000000000000C701000830
:1001000000000000C7010008C7010008C70100087F
:1001100000000000000000000000000000000000DF
:10012000C7010008C7010008C7010008C70100088F
:10013000C7010008000000000000000000000000EF
:10014000000000000000000000000000C7010008DF
:10015000C7010008C7010008C7010008C70100085F
:10016000C7010008C70100080000000000000000EF
:10017000000000000000000000000000000000007F
:1001800000000000C701000800000000000000009F
:10019000C7010008C7010008DFF80CD000F06EFAB4
:1001A00000480047B9440008680800200648804716
:1001B00006480047FEE7FEE7FEE7FEE7FEE7FEE74C
:1001C000FEE7FEE7FEE7FEE771350008990100084B
:1001D0002DE9F05F0546002092469B46884606467C
:1001E000814640241BE0284641464746224600F00F
:1001F0007CF853465A46C01A914110D3114618460E
:10020000224600F063F82D1A67EB01084F4622469C
:100210000120002100F05AF817EB00094E41201E82
:10022000A4F10104DFDC484631462A464346BDE8D6
:10023000F09FD2B201E000F8012B491EFBD27047BB
:100240000022F6E710B513460A4604461946FFF7A2
:10025000F0FF204610BD30B505462A460B4612F881
:10026000010B13F8014B08B1A042F8D01CB10028D3
:1002700002D06D1CF1E7284630BD00F0004230F09E
:1002800000400AD0C10D01F56071C0F3160042EACA
:100290000151C208400711437047002001467047D2
:1002A00030B50B46014600202022012409E021FA46
:1002B00002F59D4205D303FA02F5491B04FA02F543
:1002C0002844151EA2F10102F1DC30BD202A04DB16
:1002D000203A00FA02F1002070479140C2F1200359
:1002E00020FA03F3194390407047202A04DB203A98
:1002F00021FA02F00021704721FA02F3D040C2F146
:10030000200291400843194670472DE9FE4F804670
:1003100081EA0300C00F0C46009021F0004123F059
:100320000045B8EB0200A94105D24046214690465F
:100330001C460B46024623F00040104347D0270DD1
:10034000C7F30A00C3F30A510290401A01904028F3
:100350006BDAC3F3130040F4801B0098924620B17F
:100360000023D2EB030A63EB0B0B01985946C0F153
:1003700040025046FFF7AAFF06460D465046594632
:10038000019A00F08DF910EB08006141002487EA22
:10039000115284EAE7731A4340D0009A62B3019A7B
:1003A000012A4FEA075215DC001B61EB02014FF0F6
:1003B000004202EA0752CDE90042001C41F58011DB
:1003C00032462B4600F08DF903B0BDE8F08F404671
:1003D0002146F9E7001B61EB0201001C41F5801387
:1003E00000185B412018A2F5001747EB030140EA13
:1003F000D570B6196D4111E06D084FEA360645EA31
:10040000C0754FEA0752001B61EB0201001C41F569
:10041000801149084FEA30000019514132462B46FD
:1004200003B0BDE8F04F00F04DB900980122400044
:100430000023D0EB020263EBE073009821464FEA01
:10044000E074B8EB000061EB0401E9E783F00043DE
:100450005BE781F0004158E72DE9FE4F81EA030494
:1004600004F0004421F0004100944FF0000B23F011
:10047000004350EA01045ED052EA03045BD0C3F3A8
:100480000A54C1F30A552C44A4F2F3340194A0FB9E
:100490000254C1F3130141F48011C3F3130343F475
:1004A000801301FB024400FB034E840A970A44EACE
:1004B000815447EA8357A4FB076802958D0A05FB20
:1004C00007854FEA932C04FB0C542705029D4FEA45
:1004D000065847EA1637B5EB08056EEB070C870E92
:1004E000920E47EA811742EA8312A7FB0201B6EB9C
:1004F0000B0164EB00042B0D43EA0C335E1844EB54
:100500001C50DA465146E7FB0201C5F313044FEADB
:100510000B3343EA14534FEA0432019C43EA0603C7
:10052000A4F10C040294009CCDE900B400F0D9F8C9
:1005300003B0BDE8F08F00200146F9E72DE9F04D4A
:1005400081EA030404F0004B21F0004514464FF00B
:10055000000A23F0004150EA050220D054EA0102CB
:100560001DD0C5F30A570246C5F31303C1F31300A8
:10057000C1F30A5640F4801543F48013A7EB060834
:10058000101BD64608F2FD3873EB050002D308F1C4
:10059000010801E092185B41B8F1000F03DA002076
:1005A0000146BDE8F08D00204FF4801106468446D8
:1005B0000EE0171B73EB050705D3121B63EB050356
:1005C00006434CEA010C49084FEA300092185B419F
:1005D00050EA0107EDD152EA030012D082EA04008A
:1005E00083EA0501084305D0101BAB4106D2012266
:1005F000002306E000224FF0004302E06FF001020A
:1006000053101AEB06004CEB085110EB0A0041EBBB
:100610000B01BDE8F04D00F055B8C1F30A52C1F32B
:10062000130140F2FF3341F480119A4202DA0020B4
:100630000146704740F233439A42A2F2334202DC51
:100640005242FFF752BEFFF741BE000030B5041E14
:1006500071F1000404DB4FF00044404264EB0101FF
:10066000141E73F1000405DB1C464FF00043524298
:1006700063EB0403994208BF904230BD064C074D1E
:1006800006E0E06840F0010394E807009847103462
:10069000AC42F6D3FFF784FD88460008A846000860
:1006A000202A06DBCB17203A41FA02F043EAE07336
:1006B00006E041FA02F3D040C2F120029140084323
:1006C0001946704710B5141E73F1000408DA401C77
:1006D00041F1000192185B411A4301D120F0010061
:1006E00010BD2DE9F04D92469B4611B1B1FA81F251
:1006F00002E0B0FA80F220329046FFF7E7FD0446B0
:100700000F4640EA0A0041EA0B0153465A460843A5
:1007100013D0114653EA010019D0C8F140025046E7
:10072000FFF7E3FD05460E46504659464246FFF7A1
:10073000CDFD084305D0012004E020463946BDE840
:10074000F08D0020054346EAE0762C4337430A98B3
:100750006305E40AA0EB08000022FD0A44EA4754BE
:100760000A3002D500200146E9E701051019694168
:10077000DDE9084500196941BDE8F04DA2E7000038
:10078000464910B54A6822F440324A604A684368D4
:100790001A434A6001684A6822F480724A6001681C
:1007A0004A68036942EA03224A6001684A6822F003
:1007B00040724A6001684A6883681A434A60016867
:1007C0008A6822F400628A6001688A68C3681A43F2
:1007D0008A60816A6FF07062D14201688A6822F093
:1007E00070628A6001688A680CD0836A1A438A60E2
:1007F00001688A6822F040528A6001688A68C36A88
:100800001A4301E022F040528A6001688A6822F0AF
:1008100002028A6001688A68037E42EA43028A60B3
:1008200090F82010002901684A680FD042F4006255
:100830004A6001684A6822F460424A6001684A6876
:10084000174C436A04EB43331A4301E022F400627D
:100850004A600168CA6A22F47002CA620168CA6A00
:10086000838B104C04EB03531A43CA6201688A68F5
:1008700022F400728A6001688A6890F8303042EA97
:1008800043228A6001688A6822F480628A60016873
:100890008A68406942EA8020886010BD00230140D8
:1008A00000E0FFFF0000F0FF10B50024084800F052
:1008B000CDFAC821064800F073FA18B9044800F0D0
:1008C00011FA0446024800F027FB204610BD000044
:1008D0004000002010B500F033F902F0F1FA00F00A
:1008E0005FF80E480068C16841F01001C1606422E1
:1008F0000B490A4802F072F80A4801F071FB4FF404
:10090000FA720021012003F03DFE4FF47A71BDE838
:1009100010400A46022003F035BE00000802002005
:100920003803002078010020FEE700EB4000800043
:1009300000BF00BF00BF00BF00BF00BF00BF00BFBF
:10094000401EF5D17047000000B585B014216846FF
:10095000FFF776FC02200021CDE900010121CDE95D
:1009600002106946024800F063FB05B000BD0000BC
:100970000004024000B585B014216846FFF760FC12
:1009800002200121CDE900010021CDE902106946D4
:10099000024800F04DFB05B000BD0000000402401D
:1009A0000A4808B5016841F002010160006800F0E2
:1009B00002000090FFF7DEFF01220221044800F050
:1009C0002CFCBDE8084000F051B80000303802406F
:1009D0000004024070B50024114E25466408FFF75C
:1009E000C9FF00220221304600F017FC0220FFF769
:1009F0009CFFFFF7A9FF0C20FFF797FF022130466D
:100A000000F006FC012801D144F080043220FFF7F9
:100A10008CFF6D1CEDB2082DE0D3204670BD0000A8
:100A20000004024010B500F051F80E48FFF77DFFBA
:100A300000F01CF8CC2000F055F8BE2000F052F871
:100A4000FFF7C8FF0446FFF7C5FF44EA002000B2E5
:100A500000EE100ADFED040AB8EEC00A20EE200A0C
:100A600010BD0000B0710B000000803D70B5FFF7B5
:100A700081FF154D00220221284600F0CEFB4FF4E5
:100A8000F070FFF752FF01220221284600F0C5FB5B
:100A9000FFF75AFF4620FFF748FF0221284600F0E3
:100AA000B7FB78B9F02402E00120FFF73EFF0221F6
:100AB000284600F0ADFB08B124B101E0641EF3D27A
:100AC000002070BD012070BD0004024010B5FFF78A
:100AD000CDFFCC2000F006F8BDE81040442000F027
:100AE00001B8000070B50546FFF744FF114E002421
:100AF00000220221304600F090FB0220FFF715FF94
:100B0000E80701D0012200E000220221304600F077
:100B100084FB3C20FFF709FF01220221304600F050
:100B20007CFB6D080220FFF700FF641CE4B2082C78
:100B3000DED370BD00040240704772B6FEE70000CD
:100B40001CB50A2000F062FA0120841E8DF8040012
:100B5000034601AA46210948009400F025FD0A2019
:100B600000F054FA10208DF80400012301AA462158
:100B70000248009400F018FD1CBD0000DC000020BD
:100B800078B50024009490F83C20012A19D0012265
:100B900080F83C200A6807230568092A13D9EE6803
:100BA0000A3A02EB420293409E43EE600B788A6859
:100BB0000A3B03EB43039A400368DD682A43DA608B
:100BC00010E0022078BD2E6902EB420293409E4362
:100BD0002E610B788A6803EB43039A4003681D6912
:100BE0002A431A614A681F23072A13D205686E6BCD
:100BF000521E02EB820293409E436E630A8893B2B8
:100C00000A79521E02EB820293400268556B2B4315
:100C1000536327E005680D2A12D22E6BD21F02EB18
:100C2000820293409E432E630B790A88DB1F92B2A7
:100C300003EB83039A4003681D6B2A431A6311E098
:100C4000EE6A0D3A02EB820293409E43EE620B790C
:100C50000A880D3B92B203EB83039A400368DD6A76
:100C60002A43DA621B4B0568194A9D420AD10D6876
:100C7000122D07D1556825F400055560556845F4D7
:100C80008005556005689D421DD1134D0B68AB4230
:100C900001D0112B17D1536823F48003536053689C
:100CA00043F4000353600968A9420CD10B490C4A74
:100CB0000968B1FBF2F101EB8101490000E0491E36
:100CC00000910029FBD180F83C40002078BD000055
:100CD0000023014000200140120000100C00002001
:100CE00040420F000068C06C704770B504004FF0C0
:100CF000000503D0206C002610B107E0012070BD74
:100D0000204600F01DF8666484F83C60206CC00644
:100D100010D4206C20F4885040F00200206420465B
:100D2000FFF72EFD6664206C20F0020040F0010009
:100D3000206400E0012584F83C60284670BD000076
:100D400010B586B0044614216846FFF779FA1149B8
:100D5000206888421CD110480021026842F4807249
:100D60000260006800F4807005900B481438026837
:100D700042F001020260006800F0010005900120CD
:100D800000900320CDE901016946044800F050F9C4
:100D900006B010BD0020014044380240000002406F
:100DA0002DE9F041044600680D4681684FF00007C8
:100DB00049050BD58068C00508D5206C40F020009F
:100DC000206484F83C700120BDE8F08100F02AFA2C
:100DD000064613E0681C11D025B100F023FA801BF1
:100DE000A8420BD920680068800707D4206C40F027
:100DF0000400206484F83C700320E5E72068006864
:100E00008007E7D521686FF012000860206C40F47D
:100E1000007020642068816811F0405F13D1217E4A
:100E200089B9C16A11F4700F02D0806840050AD4F4
:100E3000206C20F480702064206CC00403D4206CEB
:100E400040F0010020640020BEE7000018B500213A
:100E5000009190F83C20012A07D0012280F83C2024
:100E600002689368DB0702D011E0022018BD936886
:100E700043F001039360244A244B1268B2FBF3F25F
:100E800002EB420200E0521E0092002AFBD10268EF
:100E90009368DB072ED0036C40F20164A34343F454
:100EA0008073036453685B0505D5036C23F400531A
:100EB00043F480530364036CDB0404D5436C23F0D8
:100EC0000603436400E0416480F83C1010496FF071
:100ED0002203136049680068C90602D00D498842A0
:100EE00010D1816811F0405F0CD1816841F08041E0
:100EF000816007E0016C41F010010164416C41F038
:100F000001014164002018BD0C00002040420F0088
:100F1000002301400020014090F83C1001290CD032
:100F2000012180F83C1001688A6822F001028A6081
:100F300001688968C90702D007E002207047016C88
:100F400021F4885141F001010164002180F83C1036
:100F5000084670472DE9F0410446876D00F062F9BC
:100F6000064694F835000025022806D080206065EA
:100F700084F834500120BDE8F0812068016821F038
:100F8000160101602068416921F080014161206CF7
:100F900008B9A06C20B12068016821F00801016047
:100FA0002068016821F0010101600CE000F03AF9CD
:100FB000801B052807D920206065032084F83500B0
:100FC00084F83450D7E720680068C007EED194F861
:100FD0005C103F208840B860012084F8350084F818
:100FE00034500020C7E790F83510022903D0802143
:100FF000416501207047052180F8351000680168BF
:1010000021F00101016000207047000070B5044626
:1010100000F008F90546601C02D00448007804443A
:1010200000F000F9401BA042FAD370BD0000002080
:101030002DE9F84FDFF8B8A10022012403254FF075
:101040000F090AF1040BAAF1040E00BF0B6804FAA1
:1010500002F63340B34273D10F7907F00307012F33
:1010600001D0022F16D187684FEA420805FA08FC22
:1010700027EA0C07D1F80CC00CFA08FC4CEA070C64
:10108000C0F808C04768B7430E79C6F3001696400B
:101090003E4346600E79F643B6070DD0C76856004A
:1010A00005FA06FC27EA0C07D1F808C00CFA06FC82
:1010B0004CEA070CC0F80CC00E7906F00306022EAD
:1010C00010D1D60800EB8608D8F8206057074FEA01
:1010D000D76C09FA0CF7BE430F6907FA0CF73743D0
:1010E000C8F8207006684FEA420C05FA0CF7BE43B8
:1010F0000F7907F0030707FA0CF7374307604E68CC
:1011000016F4403F6DD03B4E376847F48047376058
:10111000366822F0030706F480460096364E07EB49
:10112000060CDCF8086897073F0F09FA07F826EA6B
:101130000806DFF8C880404503D14FF000081EE0E4
:101140004FE0DFF8BC80404502D14FF0010816E0C7
:10115000DFF8B080404502D14FF002080FE0DFF821
:10116000A880404502D14FF0030808E0DFF89C80DA
:10117000404502D14FF0040801E04FF0070808FA9B
:1011800007F848EA0608CCF80888DAF800605746FD
:10119000D1F804C09E435FEACC2C00D51E433E60CC
:1011A000DBF800605F46D1F804C09E435FEA8C2CF8
:1011B00000D51E433E60DEF800607746D1F804C0DB
:1011C0009E435FEA8C3C00D51E433E60084F083FBB
:1011D0003E68D1F804C09E435FEACC3C00D51E4374
:1011E0003E60521C102AFFF431AFBDE8F88F0000BA
:1011F000083C0140443802400030014000000240F9
:101200000004024000080240000C024000100240AE
:101210000069084000D0012070470AB18161704721
:101220000904FBE7014880687047000000000020C7
:1012300070B5040025D094F83D00002520B984F84D
:101240003C50204600F046FA242084F83D002068F7
:10125000016821F0010101602068016841F400414A
:1012600001602068016821F40041016000F0C6FBC4
:101270004D4A6168914201D84C4900E04C4988428E
:1012800001D2012070BD4B492368B0FBF1F15E68CB
:1012900026F03F060E435E606368934206D94FF422
:1012A000967359434FF47A73B1FBF3F12368491CE9
:1012B0001E6A26F03F06314319626168914210D8D8
:1012C0004900401EB0FBF1F2521CC2F30B02042A8B
:1012D00001D2042022E0B0FBF1F0401CC0F30B006F
:1012E0001CE0A268F2B301EBC10303EB0116431E3D
:1012F000B3FBF6F35B1C43F480431B0549D092B368
:1013000001EBC10202EB0111401EB0FBF1F0401CE9
:10131000C0F30B0040F4804040F400402168CA69EB
:101320004CF6FF739A431043C861D4E90710014398
:101330002068026822F0C00211430160D4E9030171
:1013400001432068826848F2FF339A431143816069
:10135000D4E9050108432168CA6822F0FF0210435E
:10136000C86001E00EE016E02068016841F001016C
:1013700001602564202084F83D00256384F83E50F8
:10138000002070BD01EB4106431EB3FBF6F35B1C6E
:10139000B3E70120C2E701EB4101401EB0FBF1F0D1
:1013A000401CC0F30B00B7E7A086010080841E003C
:1013B00000093D0040420F002DE9F84F1F469046BE
:1013C0008A460446DDF82890FFF72CFF054694F87E
:1013D0003D00202871D11923012270492046009533
:1013E00001F064FC0028F5D194F83C00012864D099
:1013F000012084F83C0020680168C90703D1016816
:1014000041F0010101602068016821F40061016080
:10141000222084F83D00102084F83E000026266437
:10142000C4F824806785608D20855D48E0622B4686
:101430004A465146204601F049FB002876D1208DCE
:10144000584F68B1012814D002282068016816D0CE
:1014500041F48061016020684169806900908EE0FC
:101460002068416981690091016841F4007101605F
:1014700085E02068016821F480610160F0E721F4D3
:10148000806101602068016841F40061E2E703289F
:1014900046D801280AD0022810D04B4600223946EF
:1014A0002046009501F002FCC8BB25E02A464946CB
:1014B000204601F0A1FC90BB54E06CE04B460022BA
:1014C00039462046009501F0F1FB40BB20680168D9
:1014D00041F40071016020680069616A0870606A07
:1014E000401C6062218D491E2185618D491E6185E8
:1014F00021680969017039E02068016821F4806180
:10150000016020680069616A0870606A401C60625E
:10151000208D401E2085608D401E6085CEE705E051
:101520002A464946204601F067FC10B10120BDE87B
:10153000F88F20680069616A0870606A401C606208
:10154000208D401E81B22185608D401E60852068FF
:101550004269D243520712D4032903D1016821F40E
:101560008061016020680069616A0870606A401CDF
:101570006062208D401E2085608D401E6085208D1C
:10158000002884D1202084F83D0084F83E6084F84F
:101590003C600020CBE70220C9E7000002001000F9
:1015A0000000FFFF040001002DE9F84F1F469046A0
:1015B0008A460446DDF82890FFF734FE054694F885
:1015C0003D0020287FD11923012240492046009563
:1015D00001F06CFB002876D194F83C00012872D011
:1015E000012084F83C0020680168C90703D1016824
:1015F00041F0010101602068016821F4006101608F
:10160000212084F83D00102084F83E000026266446
:10161000C4F824806785608D20852D48E0622B46C4
:101620004A465146204601F0C7FA90B92068416900
:101630008069009036E02A464946204601F014FCB5
:1016400050B1206C042804D12068016841F4007175
:1016500001600120BDE8F88F606A216800780861A8
:10166000606A401C6062618D491E6185218D491E42
:1016700089B2218522685369DB435B070BD451B1E2
:1016800000781061606A401C6062608D401E608559
:10169000208D401E20852A464946204601F0DAFA70
:1016A0000028CED1208D0028C5D154F83D0B01680B
:1016B00041F400710160202004F81E09E677667786
:1016C0000020C7E7FFE70220C4E700000200100087
:1016D0000000FFFF2DE9F04186B004461421684662
:1016E000FEF7AEFD2768284CDFF898C00023264996
:1016F00012250326042225481034674518D10F68A7
:1017000047F002070F600968029301F0020105919A
:10171000C021CDE90015CDE903626946FFF788FCD9
:10172000206840F400102060206800F4001025E0DC
:10173000174B9F4223D10B6843F002030B600968EB
:10174000804601F002010591391501278DE8A200BC
:10175000CDE903626946FFF76BFC08208DE8A10024
:101760000920CDE9036069464046FFF761FC206827
:1017700040F480002060206800F48000059006B0EE
:10178000BDE8F081005400403038024000040240BF
:101790000058004002488168027811448160704717
:1017A000000000200B4810B5016841F40071016091
:1017B000016841F480610160016841F48071016059
:1017C000032000F06FF80F2000F006F800F024F876
:1017D000002010BD003C024070B50D4D04464FF492
:1017E0007A712878B1FBF0F00A490968B1FBF0F092
:1017F00000F00AFB48B9102C07D200222146501EE7
:1018000000F030F800206C6070BD012070BD000059
:10181000000000200C0000200A4808B5016841F4CF
:1018200080410160006800F4804000900548001F7E
:10183000016841F080510160006800F08050009024
:1018400008BD000044380240002809DB00F01F02F8
:10185000012191404009800000F1E020C0F8001112
:1018600070470000F0B40E4B1B680C46C3F3022314
:10187000C3F10705042D00D90425191D072901D23C
:10188000002300E0DB1E012606FA05F1491E214077
:1018900099409E40761E16403143F0BC02F07CB960
:1018A0000CED00E0064900F0070208684FF6FF0360
:1018B000184040EA0220034A1043086070470000C5
:1018C0000CED00E00000FA052DE9F0470E4605009A
:1018D00065D0DFF81481D8F80000F7B200F00700F7
:1018E000B04207D288F80070D8F8000000F0070076
:1018F000B04254D128683D4C810712D5400703D52A
:10190000206840F4E05020602878000703D5206864
:1019100040F4604020602068A96820F0F00008438F
:1019200020602878C0072DD0304968680839012820
:1019300012D0022813D0032811D009688907002982
:101940002DDA216821F0030101432160FFF76AFCD1
:10195000814641F2883A0EE009688903EFE7096899
:101960008901ECE7FFF75EFCA0EB0901514502D9C4
:101970000320BDE8F0872068696800F00C00B0EB38
:10198000810FEFD1D8F80010404601F00701B142B5
:1019900007D90770006800F00700B04201D00120AD
:1019A000E7E72878400705D52068E96820F4E0508B
:1019B000084320602878000706D52068296920F4AC
:1019C000604040EAC100206000F038F82168084A11
:1019D000C1F30311515CC84006490860064800681D
:1019E000FFF7FAFE0020C4E7003C0240083802403E
:1019F000D84500080C0000200400002004480549D8
:101A000000680968044AC1F38221515CC8407047EC
:101A10000C00002008380240E84500080448054949
:101A200000680968044AC1F34231515CC8407047FC
:101A30000C00002008380240E8450008154810B5A1
:101A4000006810F00C02144813D04110042A0FD083
:101A5000082A0ED10F4C241F2268236802F03F028F
:101A60005B0207D52068C0F38810A0FB010106E0E7
:101A7000084610BD2168C1F38811A1FB00010023B5
:101A8000FEF7A6FB2168C1F30141491C4900B0FBE8
:101A9000F1F010BD083802400024F4002DE9F84FA1
:101AA00004006ED02078DFF84C93C007A9F104053C
:101AB0004AD009F104000168C1F38101012908D06D
:101AC0000068C0F3810002280AD1D9F80000400262
:101AD00006D52868800337D560680028E1D033E058
:101AE0006068B0F5803F10D0B0F5A02F286810D006
:101AF00020F480302860286820F480202860606806
:101B0000A8B1FFF78FFB06460DE0286840F480304F
:101B1000F4E740F480202860F7E700BFFFF782FB7E
:101B2000801B642873D828688003F7D50CE0FFF782
:101B300079FB064605E000BFFFF774FB801B6428B5
:101B4000F0D828688003F7D42078DFF8AC828007CB
:101B50004FF0000A3ED5A748001D016811F00C0F98
:101B600008D00068C0F3810002280BD1D9F800002A
:101B7000400207D42868800716D5E068012800D104
:101B800012E033E1E068B8B10120C8F80000FFF7C7
:101B900049FB064605E000BFFFF744FB801B022817
:101BA000C0D828688007F7D52868216920F0F80098
:101BB00040EAC10028600DE0C8F800A0FFF732FB42
:101BC000064604E0FFF72EFB801B02281FD828687A
:101BD0008007F7D42078000722D5864F87486169AF
:101BE000703771B101210160FFF71CFB064604E06C
:101BF000FFF718FB801B022809D838688007F7D543
:101C00000EE0C0F800A0FFF70DFB064605E082E0FD
:101C1000FFF708FB801B02287DD838688007F7D4BF
:101C20002078400768D5DFF8CCB100270BF13C0BDA
:101C3000DBF80000C0000BD4DBF8001041F080514D
:101C4000CBF80010DBF80000012700F08050009076
:101C50006B4E3068C00510D4306840F4807030603E
:101C6000FFF7E0FA009005E0FFF7DCFA0099401A70
:101C7000022850D83068C005F6D55E4EA0686C3694
:101C800001280FD00528306810D020F00100306006
:101C9000306820F004003060A068B8B1FFF7C2FAE5
:101CA00000900FE0306840F00100F4E740F00400DD
:101CB0003060F7E7FFF7B6FA0099411A41F2883031
:101CC000814266D830688007F4D50EE0FFF7AAFAA3
:101CD000009007E0FFF7A6FA0099411A41F2883018
:101CE000814256D830688007F4D42FB1DBF8001059
:101CF00021F08051CBF80010A069C8B33D49091DFF
:101D00000968C1F3810102294AD00228504607D050
:101D1000C8F8600000E03CE0FFF784FA04463BE0CE
:101D20004746C8F86000FFF77DFA064605E000BFA9
:101D3000FFF778FA801B02282BD828688001F7D497
:101D4000D4E907010843A16A2E4A490802EB014180
:101D5000626A41EA8211084394F82C1040EA01615A
:101D6000C9F8001001203866FFF75CFA044606E067
:101D70003EE000BFFFF756FA001B022809D828688A
:101D80008001F7D534E000BFFFF74CFA001B0228B2
:101D900002D90320BDE8F88F28688001F4D427E039
:101DA0000128F7D0D9F80000E26900F480019142DF
:101DB0001CD1226A00F03F01914217D147F6C07151
:101DC000626A0140B1EB821F10D1A26A4FF0FF336B
:101DD00000F4403103EB5202B1EB024F06D194F80C
:101DE0002C1000F07060B0EB016F01D00120D1E742
:101DF0000020CFE70438024000004742800E4742EF
:101E0000007000400000FFFF10B5401EB0F1807F61
:101E100001D3012010BD4FF0E02460610F21601755
:101E200001F0BAFE0020A06107202061002010BD53
:101E30007047704710B590F83C20012A22D001224B
:101E400080F83C20CA688C6822F4407222434C68B7
:101E500022F4806222430C6822F4006222430C695F
:101E600022F4805222434C6922F400522243C96971
:101E7000002322F480420A4301684A6480F83C301F
:101E8000002010BD022010BD70B590F83C20012A42
:101E90002CD0012480F83C40022280F83D200368C9
:101EA0005A689D6822F070060A6832435A60104BE7
:101EB00002689A420ED0B2F1804F0BD00D4B9A427D
:101EC00008D00D4B9A4205D00C4B9A4202D00C4BD5
:101ED0009A4204D1496825F080031943916080F843
:101EE0003D40002180F83C10084670BD022070BDC6
:101EF000000001400004004000080040000C0040C9
:101F00000040014010B5040003D094F83D0010B12A
:101F100007E0012010BD002084F83C00204600F0BE
:101F20001FF8022084F83D00211D206801F034FBD9
:101F3000012084F8460084F83E0084F83F0084F8CD
:101F4000400084F8410084F8420084F8430084F89B
:101F5000440084F8450084F83D00002010BD0000D6
:101F600008B501681A48814209D11A48016841F050
:101F700001010160006800F00100009008BD1548F3
:101F8000154A001F91420ED1016841F00201016023
:101F90000068002200F00200009002211D20FFF7DF
:101FA00061FC1D2010E00D4A9142E7D1016841F02B
:101FB000040101600068002200F00400009001218B
:101FC0001E20FFF74FFC1E20BDE80840FFF73CBC79
:101FD0000000014044380240000400400008004076
:101FE00090F83D10012901D001207047022180F8AE
:101FF0003D100168CA6842F00102CA6000680E49DB
:1020000088420ED0B0F1804F0BD00C49884208D0E6
:102010000B49884205D00B49884202D00A498842C0
:1020200004D1816801F00701062903D0016841F05D
:1020300001010160002070470000014000040040E1
:1020400000080040000C0040004001400168CA68E0
:1020500022F00102CA6001680A6A41F211131A42B1
:1020600007D10A6A9B101A4203D10A6822F00102C2
:102070000A60012180F83D100020704770B50446C9
:1020800090F83C000025012817D0012684F83C6018
:10209000022084F83D002068826822F0770222F452
:1020A0007F4282600868502838D00DDC20284FD04D
:1020B00005DC90B3102811D14AE0022070BD302811
:1020C00046D040280AD13BE060282FD070280DD0A0
:1020D000B0F5805F03D0B0F5005F12D0012584F821
:1020E0003D60002084F83C00284670BDCB68D1E9F3
:1020F0000121206801F0A2FA2068816841F077018F
:1021000009E0CB68D1E90121206801F097FA206845
:10211000816841F480418160E1E719E0CA6849685B
:10212000206801F03FFB5021206806E0CA6849683A
:10213000206801F048FB6021206801F089FACEE7B1
:10214000CA684968206801F02DFB40212068F4E747
:10215000226801461046F0E770472DE9F041044639
:102160000068C66805694FF00007A90713D5B107D5
:1021700011D5F91E01610120207720688069800750
:10218000204602D0FFF7E8FF04E000F0A9F820465F
:1021900000F03BF92777680716D5700714D521683A
:1021A0006FF004000861022020772068806910F435
:1021B000407F204602D0FFF7CFFF04E000F090F808
:1021C000204600F022F92777280715D5300713D5C8
:1021D00021686FF008000861042020772068C0693A
:1021E0008007204602D0FFF7B7FF04E000F078F840
:1021F000204600F00AF92777E80616D5F00614D530
:1022000021686FF010000861082020772068C069FD
:1022100010F4407F204602D0FFF79EFF04E000F05C
:102220005FF8204600F0F1F82777E80708D0F007BC
:1022300006D021686FF001000861204600F0E6F842
:10224000280608D5300606D521686FF080000861A1
:102250002046FFF7EDFD680608D5700606D5216813
:102260006FF040000861204600F09AF9A8060AD5F0
:10227000B00608D521686FF0200008612046BDE84F
:10228000F041FFF7D6BDBDE8F081000010B586B083
:10229000044614216846FDF7D3FF0E4920688842A2
:1022A00016D10D480021026842F001020260006868
:1022B00000F0010005904FF4407000900220CDE93D
:1022C00001010120CDE9031069460448FEF7B0FE84
:1022D00006B010BD0000014030380240000002404E
:1022E000704770B5044690F83C0000260D46012862
:1022F0000FD0012084F83C006AB1042A1DD0082ABE
:102300002FD00C2A3FD00126002084F83C00304614
:1023100070BD022070BD206801F0A2F920688169BB
:1023200041F0080181612068816921F00401816127
:10233000206881692A69114311E0206801F0B8F929
:102340002068816941F4006181612068816921F41C
:1023500080618161206881692A6941EA0221816185
:10236000D2E7206801F0D0F92068C16941F0080186
:10237000C1612068C16921F00401C1612068C1699F
:102380002A69114311E0206801F0EAF92068C16967
:1023900041F40061C1612068C16921F48061C161BB
:1023A0002068C1692A6941EA0221C161ACE710B520
:1023B000040003D094F83D0010B107E0012010BDE7
:1023C000002084F83C00204600F01EF8022084F82B
:1023D0003D00211D206801F0DFF8012084F846004F
:1023E00084F83E0084F83F0084F8400084F84100FF
:1023F00084F8420084F8430084F8440084F84500DF
:1024000084F83D00002010BD704770472DE9F04F63
:1024100000685B495B4C89B04FF0000B88424AD1A1
:10242000E088401C80B2E0806169491C616142F231
:10243000107188422AD384F800B02069FDF71DFF8F
:1024400080460E46E069FDF718FF05460F46A06975
:10245000FDF713FF81468A46E068FDF70EFF0A4646
:102460000146206A8DE80606CDE9076004AB464ABE
:1024700083E8A001C821454801F076FB3223C82239
:102480004249434800F0B9FAA4F806B0606960B167
:10249000B52807DD00F006FFBDEEC00A84ED080A8E
:1024A000C4F814B009B0BDE8F08F09B01020BDE841
:1024B000F04F01F005B837498842F3D120894FF435
:1024C0006172401C0004000C2081618801F101014F
:1024D000618008D04FF47A714FF41B73884205D1A4
:1024E000194602202EE040F22A31FAE7A0F53062C8
:1024F000B83A1ED0A0F5A8554FF4C8727C3DF0D074
:102500005500A0F5B856703E1FD0A0F5D856583EDD
:10251000E7D0B0F5FA5F18D0A0F50C52283A0DD0EC
:10252000A0F52852303A12D0A0F52851F83910D031
:1025300016E040F26C7240F2EE2102E04FF41672A7
:102540000021012002F01EF80AE02A46C8E70A46E8
:10255000C7E7A4F808B0A4F802B00F48FFF776FD6B
:1025600061880E48891EB1F5267F01D2012200E064
:10257000002209B00421BDE8F04FFEF74EBE000076
:102580000004004010000020F04500089C030020DB
:102590000802002000080040C001002000040240A2
:1025A000704770477047000070B5044620680C30D3
:1025B00050E8001F21F4907140E80012002AF5D184
:1025C0002068143050E8001F21F0010140E800129B
:1025D000002AF5D1206B012809D120680C3050E881
:1025E000001F21F0100140E80012002AF5D12068F8
:1025F00040694FF0200241064FF0000015D52168D8
:10260000143151E8003F23F0400341E80035002D2C
:10261000F5D1E16B49B109480865E06BFEF7E3FCD1
:1026200050B1E06B016D884706E0E08584F84220F8
:1026300020632046FFF7B6FF002070BDFB3700087F
:1026400070470000F8B5016804460868CA684B691D
:1026500010F00F0F4FF0000559D003F0010602F4FF
:102660009077374365D0C10705D0D10503D5616C9C
:1026700041F001016164410705D5D90703D0616CC0
:1026800041F002016164810705D5D90703D0616C6F
:1026900041F004016164010707D502F020013143D4
:1026A00003D0616C41F008016164616C00293AD08B
:1026B000800604D5900602D5204601F0D0F82068A7
:1026C0004069616CC0F38010090700D460B32046F4
:1026D00001F09EF820684069400621D5206814303A
:1026E00050E8001F21F0400140E80012002AF5D117
:1026F000E06BA8B16E490165E06BFEF774FC002841
:1027000011D0E06B016D01B0BDE8F04008478306D1
:102710000FD593060DD52046BDE8F84001F09FB8CF
:102720002046FFF78DFFF8BD2046FFF789FF65645F
:10273000F8BD266B2023012E7DD1C6067BD5D6069B
:1027400079D508684868009048694FF0020640064D
:1027500041D5E16B086840680004000CE8D0A28D08
:102760008242E5D9E085C869B0F5807F2DD0206828
:102770000C3050E8001F21F4807140E80012002A5C
:10278000F5D12068143050E8001F21F0010140E825
:102790000012002AF5D12068143050E8001F21F003
:1027A000400140E80012002AF5D184F84230256348
:1027B00020680C3050E8001F21F0100140E80012A2
:1027C000002AF5D1E06BFEF7C5FB6663A08DE18DB5
:1027D000401A81B22AE0A08DE18D401A81B2E08DCD
:1027E0000028A5D00029A3D022680C3252E8000F9F
:1027F00020F4907042E80007002FF5D120681430D3
:1028000050E8002F22F0010240E80027002FF5D108
:1028100084F84230256320680C3050E8002F22F005
:10282000100240E80023002BF5D166632046FFF735
:10283000B8FEF8BDFFE705062BD5150629D594F897
:1028400041002128F5D1A068B0F5805F01D1206951
:10285000B0B1206A411C2162216800784860E08C98
:10286000401E0004000CE084E3D12068C16821F020
:102870008001C1602068C16841F04001C160D8E7B3
:10288000206A0088C0F308004860206A801C20622B
:10289000E5E74006CDD55006CBD5CA68204622F0E4
:1028A0004002CA6084F8413000F0F7F8C1E7000048
:1028B000EB37000870B5040004D094F841000025FF
:1028C00010B106E0012070BD84F84050204600F0B1
:1028D00023F8242084F841002068C16821F40051C5
:1028E000C160204601F01CF82068016921F4904184
:1028F00001612068416921F02A0141612068C168B5
:1029000041F40051C1606564202084F8410084F8DE
:1029100042006563002070BD30B587B004461421C5
:102920006846FDF78DFC284D2268002127480223C8
:102930000324AA4226D1254A1032156845F40035F1
:102940001560126802F400320592026842F001023A
:1029500002600068CDE9021400F0010005900C202F
:10296000CDE900030720049069461948FEF760FB93
:10297000002201212620FEF775FF2620FEF764FFC6
:1029800007B030BD134DAA42FAD1104A143215686F
:1029900045F020051560126802F0200205920268D9
:1029A00042F0040202600068CDE9021400F0040065
:1029B0000590C020CDE90003082004906946064830
:1029C000FEF736FBDCE700000044004030380240F0
:1029D00000000240001401400008024090F842301C
:1029E000202B01D00220704721B11AB100230363CC
:1029F00001F01CB80120704770472DE9F8430446E8
:102A000090F84100984616460D46202802D0022034
:102A1000BDE8F88385B17EB100206064212084F890
:102A20004100FEF7FFFBA6848146E684A0682027CC
:102A3000B0F5805F02D003E00120E9E7206910B122
:102A40002E4600250EE000260CE08021204601F0F5
:102A500008F8A8B9C6B116F8010B21684860E08CE7
:102A6000401EE084E08C4B464FF00002CDF8008021
:102A70000028EAD14FF04001204600F0F2FF40B1BB
:102A800084F841700320C3E735F8020BC0F3080057
:102A9000E3E784F841700020BAE77047FEE7016879
:102AA0004A69D24352050FD46FF480624A61002113
:102AB00040F8301F202242738173026942F0040201
:102AC0000261017301207047002070472DE9F84F23
:102AD0000446C06A1E4693460D4621680A6842F4C1
:102AE00080620A60082807D0012805D010F5803FD1
:102AF00002D0206B112804D12068016841F4807154
:102B000001604FF001195B460022494620460096BD
:102B100000F0CCF84FF4007840B120680068C005A0
:102B200001D5C4F840800320BDE8F88F2069DFF8A4
:102B300084A0B0F5804F0FD00620216800EAD51799
:102B400047F0F000086133465A460AF10601204674
:102B500000F0F4F858BB03E0E8B240F001001CE0DC
:102B60002168E8B2086133465A465146204600F0D3
:102B7000E5F8E0B92068416981690091016841F494
:102B8000807101605B46002249462046009600F0B5
:102B90008DF80028C1D147F0F10021680861334663
:102BA0005A465146204600F0C9F80028BCD0012002
:102BB000BAE7000002000100F8B50446C06A1E46EC
:102BC0000D461746082807D0012805D010F5803F8C
:102BD00002D0206B122804D12068016841F4807172
:102BE0000160134600224FF001112046009600F0CC
:102BF0005DF840B120680068C00502D54FF4007050
:102C000020640320F8BD2069B0F5804F0ED0062067
:102C1000216800EAD51040F0F000086133463A46DA
:102C20000B49204600F08AF878B902E005F0FE0072
:102C300000E0E8B221680861054933463A46891F39
:102C4000204600F07BF80028DCD00120F8BD000011
:102C50000800010070B516460D4604461EE02046E9
:102C6000FFF71DFF08B1012070BD681C16D0FEF7EC
:102C7000D9FA801BA84200D885B920684069C043B2
:102C800040070BD5002044F8300F20216173A0735A
:102C9000216941F0200121612073E4E72068406947
:102CA000C0434007DBD4002070BD00002DE9F04791
:102CB000984617460D460446C1F30746DDF82090B6
:102CC0002AE000BFB8F1FF3F26D0FEF7ABFAA0EB39
:102CD0000901414502D8B8F1000F1DD12068012E2D
:102CE00016D0806925EA00000004000C12D00020F4
:102CF000B84211D1002044F8300F20216173A07335
:102D0000216941F02001216120730120BDE8F08795
:102D10004069E7E70120EBE72068012E0AD08069CF
:102D200025EA00000004000C06D00020B842C9D0FB
:102D30000020EBE74069F3E70120F7E72DE9F047D2
:102D4000984616460D4604464FF000094FF0200AFB
:102D5000C1F3074723E020684069C043400515D40C
:102D60002068016841F40071016021686FF480609F
:102D70004861C4F8309084F83DA084F83E90216CFE
:102D800041F00401216484F83C9021E0701C06D0DD
:102D9000FEF748FAA0EB0800B04203D816B1012FA5
:102DA0001FD021E02068012F15D0806925EA00009E
:102DB0000004000C18D000BF44F8309F84F80DA028
:102DC00084F80E90216941F02001216184F80C9073
:102DD0000120BDE8F087406925EA00000004000CEE
:102DE000EAD12068406901E02068806925EA000096
:102DF0000004000CAFD1ECE72DE9F041002590462E
:102E00000E460446202728E04069C043C0060CD483
:102E100054F8301B6FF01000486144F81059677780
:102E2000A577206A2062257714E0FEF7FBF9A0EB76
:102E30000800B04200D886B920684069C043400607
:102E40000BD544F8305F6773A573206940F020000C
:102E5000206125730120BDE8F08120684169C943E4
:102E60004906D1D40020F6E770B516460D46044653
:102E70001EE02046FFF713FE08B1012070BD681C5C
:102E800016D0FEF7CFF9801BA84200D885B920687C
:102E90004069C04300060BD5002044F8300F2021C4
:102EA0006173A073216941F0200121612073E4E77F
:102EB00020684069C0430006DBD4002070BD0000DC
:102EC0001CB50BA00068019000F0E2FA4FF0FF3053
:102ED0000090022301AA88210648FEF765FB10B185
:102EE00005A000F031FEC820FEF790F81CBD0000E0
:102EF0002236000088000020496E69745F534854F0
:102F000033305F6572726F723A20696E6974206641
:102F100061696C0D0A0000007FB50024154800941B
:102F2000019402941249039401604FF48031C0E986
:102F300001140461047680F820400F49C0E90A14A6
:102F40000125C561C46080F830404561FDF7CDFEC4
:102F500008B1FDF7F2FDCDE9004569460548029448
:102F6000FDF70EFE002801D0FDF7E7FD7FBD000054
:102F700000200140400000200100000F30B587B064
:102F800014216846FDF75CF91D480024016841F0F2
:102F900080010160016801F080010591016841F044
:102FA00001010160016801F001010591016841F032
:102FB00002010160016801F002010591016841F020
:102FC0000401016000680F4D00F00400059000222C
:102FD00004212846FEF721F90220CDE900046946C4
:102FE00028460294FEF724F8042000900120CDE941
:102FF0000104694628460394FEF71AF807B030BD6D
:1030000030380240000402400D4810B50B49016001
:103010000C49416000214FF480428160C0E90312F5
:1030200041618161C1610162FEF702F9002803D0AC
:10303000BDE81040FDF781BD10BD00000054004008
:1030400088000020A08601000D4810B50B490160E2
:103050000C49416000214FF480428160C0E90312B5
:1030600041618161C1610162FEF7E2F8002803D08D
:10307000BDE81040FDF761BD10BD000000580040E4
:10308000DC000020A086010010B596B000240F944B
:1030900010941194129413941C2168461494FDF713
:1030A000CFF8202107A8FDF7CBF82C482A4901606A
:1030B0006321C0E9011444F61F61C0E903144461AF
:1030C0008461FEF71FFF08B1FDF737FD4FF4805014
:1030D0000F900FA92148FEF7D1FF08B1FDF72DFD94
:1030E0001E48FFF764F908B1FDF727FD139413A9F3
:1030F0001A481494FEF7C8FE08B1FDF71EFD6020C3
:10310000CDE90004029403940494059400226946D6
:1031100012480694FFF7E5F808B1FDF70EFD04220A
:1031200069460E48FFF7DDF808B1FDF706FD079484
:10313000089409944FF400500A94CDE90B4007A974
:1031400006480E94FEF776FE08B1FDF7F6FC03483C
:10315000FFF79CF816B010BD0000014030010020C0
:1031600010B586B00024174800940194029403948B
:1031700004941349059401606321C0E9011440F2ED
:10318000E731C0E903148461FEF7BCFE08B1FDF726
:10319000D4FC4FF48050009069460A48FEF76EFF59
:1031A00008B1FDF7CAFC049404A906480594FEF78B
:1031B0006BFE002801D0FDF7C0FC06B010BD00007A
:1031C000000400407801002010B586B000241748A4
:1031D00000940194029403940494134905940160AB
:1031E0006321C0E9011440F2E731C0E903148461AE
:1031F000FEF788FE08B1FDF7A0FC4FF48050009068
:1032000069460A48FEF73AFF08B1FDF796FC0494B8
:1032100004A906480594FEF737FE002801D0FDF703
:103220008CFC06B010BD000000080040C00100206A
:103230000C4810B50A4901604FF416514160002155
:1032400081600C22C160C0E904128161C161FFF795
:1032500031FB002803D0BDE81040FDF76EBC10BD67
:1032600000440040080200200C4810B50A490160E3
:103270004FF416514160002181600C22C160C0E909
:1032800004128161C161FFF715FB002803D0BDE87E
:103290001040FDF752BC10BD001401405002002048
:1032A000FEE700001CB54FF0FF300090022301AA9A
:1032B00046210948FEF780F810B1BFEE000A1CBD98
:1032C000BDF804009FED051A40BA00EE100AF8EEB2
:1032D000400A80EE810A1CBDDC0000209A99993FCB
:1032E000FEE7704720F0030000EE100ADFED050A4C
:1032F0009FED051AB8EE400A60EE200A80EE810AC2
:10330000704700000000C84200FF7F4720F0030024
:1033100000EE100ADFED070A9FED071AB8EE400A2B
:1033200020EE200AC0EE010A9FED040A30EEC00A2A
:103330007047000000002F4300FF7F470000344229
:10334000F0B5FF23002440F231160FE0055D6B401D
:1033500008251F0602D586EA430300E05B006D1EC8
:10336000DBB215F0FF05F4D1641CE4B28C42EDD35E
:10337000934201D00120F0BD0020F0BD7FB504468E
:1033800020A00D4600684FF0FF360390022303AAE9
:10339000882100961C48FEF707F908B11BA01EE023
:1033A0001E20FDF733FE062301AA88211648009649
:1033B000FEF702F8002814D19DF80620022101A88A
:1033C000FFF7BEFF70B11BA000F0BEFB9DF8092007
:1033D00002210DF10700FFF7B3FF58B121A000F063
:1033E000B3FB7FBDBDF8040040BAFFF78FFF85ED4A
:1033F000000AEBE7BDF8070040BAFFF773FF84ED62
:10340000000A7FBDE00000008800002053485433CC
:10341000305F5265616444617461206572726F72DD
:103420003A207472616E736D6974206661696C0D07
:103430000A00000053485433305F526561644461B0
:103440007461206572726F723A2074656D70657276
:10345000617475726520435243206661696C0D0A80
:103460000000000053485433305F5265616444618A
:103470007461206572726F723A2068756D69646953
:10348000747920435243206661696C0D0A00000084
:103490001CB508A00223006801904FF0FF30009097
:1034A00001AA88210448FEF77FF83220FDF7AEFD1F
:1034B0001CBD000030A20000880000207047000002
:1034C00001B582B04FF0FF300090012302AA4621DF
:1034D0000148FEF769F80EBDDC000020FEF75AB97E
:1034E00030B593B030216846FCF7AAFE14210CA831
:1034F000FCF7A6FE1C480025016841F080510160E0
:10350000006800F0805011901848016841F4404173
:1035100001600068022400F44040119001200090F6
:10352000000401908001CDE9064008AA042064212E
:1035300082E813000B906846FEF7B0FA08B172B645
:10354000FEE70CA90F2081E831004FF48050CDE94F
:103550000F0503210CA8FEF7B7F9002801D072B6B9
:10356000FEE713B030BD000040380240007000405C
:103570000248016841F470010160704788ED00E085
:103580000148FEF7EABD0000780100200148FEF77F
:10359000E4BD0000C0010020F0B50268204B214CC2
:1035A0009F03214D214E984207D0B84205D0A0423A
:1035B00003D0A84201D0B04204D122F0700C4A6876
:1035C00042EA0C02984210D0B8420ED0A0420CD071
:1035D000A8420AD0B04208D0154CA04205D0154CE4
:1035E000A04202D0144CA04203D122F44074CA6815
:1035F00022434C6922F08002224302608A68C26240
:103600000A688262984201D109690163012141611E
:103610000169C90703D0016921F001010161F0BD11
:10362000000001400004004000080040000C004081
:1036300000400140004401400048014010B584684A
:1036400042EA032224F47F440A432243826010BDED
:10365000826822F070020A4342F0070181607047DD
:1036600030B5036A026A22F001020262426884698C
:1036700024F073050C682C4323F002058B682B4360
:103680000A4DA8420BD123F00805CB6822F4407202
:103690002B434D6923F0040315438A692A43426092
:1036A000846149684163036230BD0000000001404D
:1036B00030B5026A036A23F0100303624368846929
:1036C0000D6824F4E64444EA05248D6822F02002C3
:1036D00042EA05120B4DA8420ED1CD6822F08002BD
:1036E00042EA05124D6923F4406343EA85038D697C
:1036F00022F0400243EA85034360846149688163A4
:10370000026230BD0000014030B5036A026A22F453
:10371000807202624268C46923F4007324F0730566
:103720000C682C438D6843EA05230C4DA8420ED14A
:10373000CD6823F4006343EA05234D6922F4405227
:1037400042EA05128D6923F4806342EA0512426061
:10375000C4614968C163036230BD000000000140DC
:1037600030B5046A026A22F4805202624268C36978
:103770000D6823F4E64343EA05238D6824F40054DE
:1037800044EA0534064DA84204D14D6922F4804232
:1037900042EA85124260C36149680164046230BD37
:1037A0000000014010B5036A046A24F001040462B9
:1037B000846924F0F00444EA021423F00A020A4364
:1037C0008461026210BD10B5036A046A24F010041B
:1037D0000462846923F0A00324F4704444EA0232B2
:1037E00043EA01118261016210BD10B5806B0021B6
:1037F000C185C184FEF724FF10BD10B5806B002188
:10380000C185202280F842200163FEF7CBFE10BD67
:1038100001680C3151E8002F22F4907241E8002336
:10382000002BF5D10168143151E8002F22F001027C
:1038300041E80023002BF5D1016B012909D1016872
:103840000C3151E8002F22F0100241E80023002B38
:10385000F5D1202180F8421000210163704708B59E
:1038600090F84210222901D0022008BD82684FF44E
:1038700080539A4201D1016921B1816A9A421BD0D9
:103880004AB10AE00268816A5268C2F308020A80FB
:10389000816A891C08E0026972B10268526802F00C
:1038A0007F020A70816A491C8162C18D491E090428
:1038B000090CC18503D01BE002685268F1E701687A
:1038C000CA6822F02002CA600168CA6822F48072C5
:1038D000CA6001684A6922F001024A61202180F829
:1038E000421000214163026B012A03D0FFF784F8E4
:1038F000002008BD016301680C3151E8002F22F05F
:10390000100241E80023002BF5D101680A68D206B5
:1039100002D50A6849680091818DFEF742FEE7E70B
:1039200070B5044600680169E26821F44051114312
:1039300001612169A068E269084361691143084394
:103940002168CA6849F20C639A430243CA6020683E
:103950004169A26921F440711143416131492068F4
:10396000884202D03049884202D1FEF757F801E080
:10397000FEF744F8E2690023192164253226B2F5E6
:10398000004F626828D0A0FB0101930F9200FCF762
:103990001FFC0146B0FBF5F06FF01802504301EB3D
:1039A000800006EB0010B0FBF5F000F0F002B1FB78
:1039B000F5F002EB0012B1FBF5F06FF0180358437D
:1039C00001EB800006EB0010B0FBF5F000F00F00FB
:1039D00021681044886070BDA0FB010192185B4112
:1039E000FCF7F6FB0146B0FBF5F00201B1FBF5F088
:1039F0006FF01803584301EB800006EBC000B0FBEA
:103A0000F5F000F0F80002EB4002B1FBF5F058438E
:103A100001EB800006EBC000B0FBF5F000F0070002
:103A2000D6E7000000100140001401408162828549
:103A3000C28500214164222180F84210016921B130
:103A40000168CA6842F48072CA6001684A6942F03B
:103A500001024A610068C16841F02001C160002094
:103A600070472DE9F843984617460D460446089ED0
:103A700024E0701C22D0FDF7D5FBA0EB0800B0427B
:103A80001AD8CEB12068C168490717D5802D15D046
:103A9000402D13D00168C94309070FD401680025E0
:103AA000406800902046FFF7B3FE0820606484F869
:103AB00040500120BDE8F8830320FBE72068006840
:103AC00035EA000004D00020B842D2D00020F1E74F
:103AD0000120F9E738B51448FEF7B4FD124C206810
:103AE00000684FF00005C043C00617D40FA111486D
:103AF000FCF7B1FB30B11048FEF772FA0F480580B1
:103B00000F4805700848FEF74FFD64220949064832
:103B1000FEF764FF20680168406800902068016833
:103B20004068009038BD0000080200207461736B8B
:103B30000000000038030020C00100201800002011
:103B400038000020FEE700000FB4054B10B503A9B4
:103B5000044A029800F002F910BC5DF814FB000062
:103B6000A14400083C0000200FB41CB50246002010
:103B700007AC00290BD0491ECDE90021054B6A4650
:103B80002146069800F0EAF8009A002111701CBC4A
:103B90005DF814FB8B4400080907090E002804DBBC
:103BA00000F1E02080F80014704700F00F0000F1F1
:103BB000E02080F8141D704702E008C8121F08C1F9
:103BC000002AFAD170477047002001E001C1121F9E
:103BD000002AFBD1704700002DE9FF5F82B0002171
:103BE000DDE90430020DDDF840B0034318D044F69F
:103BF0001050A2F2FF3242431514119801281FD031
:103C0000A5EB0B00401C5FEA000A4FF000064E4F88
:103C1000DFF83891B046504615D5CAF1000413E0DC
:103C2000119801244AA3012801D16FEA0B010298DF
:103C3000119AC0E90031C0E9024206B0BDE8F09F28
:103C4000CBF10000DFE704460021404A491842EB6F
:103C50000450CDE9001012E0E00707D032463B46A1
:103C600040464946FCF7F8FB8046894632463B46CB
:103C700010461946FCF7F0FB06460F466410002C70
:103C8000EAD1DDE90401DDE90023BAF1000F06DA2B
:103C9000FCF7E2FB42464B46FCF7DEFB05E0FCF797
:103CA0004DFC42464B46FCF749FC04460E460022BA
:103CB000284BFCF7CBFC03D84FF0FF30014607E060
:103CC0000022254B20463146FCF71FFBFCF7A5FCE4
:103CD000102409E0002C0ADB0A220023FCF778FA02
:103CE000039B30321A55641E50EA0102F2D1641C63
:103CF000039AC4F111031444119A012A03D001223A
:103D000008430DD10AE0084304D000204FF0110B06
:103D1000119072E7A3EB0B056D1E0DE05B4504DD12
:103D20004FF0000205F1010504E003DA4FF0000254
:103D3000A5F10105002AECD002981199C0E90231E1
:103D4000C0E9004579E70000000014400000F03FA2
:103D5000300000000000F0430000E03F2DE9FF4F7D
:103D600095B09B468946064600250FE2252877D167
:103D700000242746F84A0121059400E0044316F880
:103D8000013F203B01FA03F01042F7D130782A2896
:103D900011D06FF02F033078A0F13002092A16D825
:103DA000059A44F0020402EB820203EB4202104443
:103DB000761C0590EFE759F8042B0592002A03DAE8
:103DC000504244F40054059044F00204761C3078CC
:103DD0002E2816D116F8010F44F004042A280DD01D
:103DE0006FF02F023078A0F13003092B09D807EBD0
:103DF000870302EB4303C718761CF3E759F8047BEB
:103E0000761C30786C280FD006DC4C2817D0682838
:103E10000DD06A2814D104E0742810D07A280FD16C
:103E20000DE044F400140AE044F4801401E044F48A
:103E300040147278824202D104F58014761C761CFC
:103E4000307866280BD013DC582877D009DC00289E
:103E500075D04528F6D04628F4D047281AD19DE1E0
:103E600018E0632835D0642879D0652812D195E10F
:103E7000702873D008DC6728F1D069286FD06E28CD
:103E80000DD06F2806D1B5E073282CD0752875D0D9
:103E9000782874D05A46179990476D1C75E1C4F381
:103EA0000250022809D003280DD0D9F800100428A8
:103EB0000DD00D6009F1040967E1D9F80010EA1787
:103EC000C1E90052F6E7D9F800100D80F2E70D7055
:103ED000F0E719F8041B8DF8001000208DF80100A0
:103EE000EA46012003E059F804AB4FF0FF306107C8
:103EF0004FF0000102D40DE008F101018846B942FB
:103F00000FDA8045F8DB1AF808100029F4D108E030
:103F100008F1010188468142FADB1AF808100029ED
:103F2000F6D105985B46A0EB080721463846179A5C
:103F300000F094FA284400EB080507E04DE029E181
:103F40000DE01AF8010B5A4617999047B8F101088D
:103F5000F7D25B4621463846179A13E142E00A221F
:103F60000092C4F302524FF0000A022A08D059F816
:103F700004CB032A4FEAEC710AD00DE029E02AE0D5
:103F800009F1070121F00702F2E802C1914609E0B8
:103F90000FFA8CFC4FEAEC71042A03D14FFA8CFC27
:103FA0004FEAEC71002907DA0A460021DCF1000C27
:103FB00061EB02012D2202E0220504D52B228DF8AF
:103FC0000420012203E0E20701D02022F7E7904617
:103FD00059E00A2102E010220DE010214FF0000A02
:103FE00000910BE010224FF0000A44F0040408276F
:103FF000009203E008224FF0000A0092C4F302523C
:10400000022A05D059F804CB0021032A08D009E080
:1040100009F1070121F00702F2E802C1914605E02B
:104020001FFA8CFC042A01D10CF0FF0C4FF00008A1
:10403000220728D5702806D0009B83F0100353EA8E
:104040000A0305D00EE040228DF80420012208E08A
:104050005CEA010206D030228DF804208DF80500BC
:1040600002229046009B83F0080353EA0A030AD118
:104070005CEA010201D1620705D530228DF80420E7
:104080004FF001087F1E582804D034A003900EA8DA
:1040900002900DE036A0F9E753466046009AFCF71F
:1040A00097F884460398825C0298401E0290027042
:1040B0005CEA0100F0D1029806A9081A00F1200A72
:1040C000600702D524F4803400E00127574502DD63
:1040D000A7EB0A0000E0002000EB0A010090059821
:1040E0004144401A0590E00306D45B462146179AE6
:1040F000059800F0B3F90544002706E001A85A46E8
:10410000C05D179990476D1C7F1C4745F6DBE003A7
:104110000CD55B462146179A059800F09FF9054497
:1041200004E030205A46179990476D1C0099481EAC
:1041300000900029F5DC08E0029802995A460078C0
:10414000491C0291179990476D1CBAF10001AAF120
:10415000010AF1DC65E10000092801003031323349
:1041600034353637383961626364656600000000B3
:10417000303132333435363738394142434445469D
:104180000000000000F058F90544761C3078002843
:104190007FF4ECAD19B02846BDE8F08F620700D47B
:1041A000062709F1070222F0070CFCE80223E1468A
:1041B00003F000485FEA080C02D00FF2702C0DE00B
:1041C0005FEA045C02D50FF2682C07E05FEAC47C6A
:1041D00002D00FF2602C01E0AFF2700C4FF0FF380C
:1041E00023F00043CDF850C065280CD006DC4528EC
:1041F00009D046281DD047283DD13DE0662818D07B
:1042000067287ED138E00021112F01DB112000E06A
:10421000781CCDE9000106A90EA8FFF7DDFCDDE959
:104220000F010E9A03910021009207F1010A0491F7
:104230004DE04FF000400097CDE9011006A90EA80F
:10424000FFF7CAFCDDE90F0203920E9B11990022D1
:10425000DDF80CA00093049211B9791C00EB010A5F
:10426000B7EB0A0004D4C0F1FF3007F1010A049053
:10427000AAEB0700019044E0012F00DA012700219A
:10428000112F01DD112000E03846CDE9000106A91B
:104290000EA8FFF7A1FCDDE90F010E9A03910021A2
:1042A00004910092BA4621070CD40399514500DAD3
:1042B0008A46BAF1010F05DD009AAAF10101515CAD
:1042C000302908D0B84202DA10F1040F06DA0121D1
:1042D000CDE9011015E0AAF10101E9E7002805DCAC
:1042E000049901440491AAEB000102E0411C5145EC
:1042F00000DD8A460499401A401C01904FF00040AE
:104300000290200704D40198504501DBCDF80480C9
:1043100000208DF84F0002980DF14F07B0F1004FCB
:1043200025D02B200E9002984FF0020800280CDABE
:10433000404202902D200E9007E00A210298FBF7E0
:10434000AFFF3031029007F8011DB8F10001A8F16C
:104350000108F2DC02980028EFD1791E0E9808704F
:10436000307800F0200040F0450007F8020D12A858
:10437000C01B00F107081498007800B1012000EB81
:104380000A01019801EBE07105984144401A401E72
:104390000590E00306D45B462146179A059800F085
:1043A0005DF805441498007818B15A46179990475B
:1043B0006D1CE00324D55B462146179A059800F052
:1043C0004DF805441CE00498002807DBDDE90301F3
:1043D000884203DD0098405C179901E0179930206E
:1043E0005A469047049805F10105401C0490019835
:1043F000401E019004D12E205A46179990476D1CFB
:10440000BAF10001AAF1010ADDDC05E017F8010BA1
:104410005A46179990476D1CB8F10001A8F10108A0
:10442000F4DC5B462146179A0598ABE62D000000A8
:104430002B000000200000002DE9F041044600257B
:104440001E461746880404D405E039462020B047AC
:104450006D1C641EF9D52846BDE8F0812DE9F041B8
:10446000044600251E469046C80301D5302700E0CB
:104470002027880404D505E041463846B0476D1C26
:10448000641EF9D52846BDE8F0814A68002A06D0A6
:104490000A68531C0B6010704868401E48607047E3
:1044A00013B501231A4669460248FEF7A6FA00989A
:1044B0001CBD0000500200202DED048BFDF772F9A9
:1044C000FFF70EF8FEF75AFDFEF726FDFEF79CFDFE
:1044D000FEF7BAFDFEF7D8FDFEF742FEFEF774FECA
:1044E000FEF7A6FEFEF7C0FEFCF7F4F91A4C1B4DD2
:1044F000DFF86C809FED1B8ADFED1B8A9FED1B9A16
:10450000DFF86C901B4E1C4FF3EE049A4FF0010A3B
:104510002078D0B917491948FEF730FFFCF7C4F9E5
:104520002860FCF77FFA88ED000A95ED000AF8EEA6
:10453000400A80EE880A60EE280A80EE890A20EEA2
:10454000290A89ED000A84F800A03068B842DFD952
:104550000B48FDF745FDDBE710000020340000208C
:104560002C00002000F07F4533335340CDCCCC3DB0
:104570002000002028000020000070C11C00002046
:10458000C001002030B41F2817D8002A15D00C4BCA
:1045900055245C701C7008249C700324DC7001247A
:1045A0001C715A71120A9A71D8711972080A5872DC
:1045B00030BC0A21184600F005B830BC7047000036
:1045C000980200200A4601464FF47A730148FEF72C
:1045D00014BA00005002002000000000000000009B
:1045E0000102030406070809000000000102030499
:1045F0007B227365727669636573223A205B7B2246
:10460000736572766963655F6964223A202232308D
:1046100032355F456363222C202270726F706572A1
:1046200074696573223A207B2248756D69646974E8
:1046300079223A20252E32662C202254656D706531
:10464000726174757265223A20252E32662C202202
:1046500054656D70657261747572655F43223A20AE
:10466000252E32662C2022416C636F686F6C223AD3
:1046700020252E32662C20224C69676874223A204D
:1046800025647D7D5D7D0000A846000800000020B7
:1046900040000000B83B0008E84600084000002049
:1046A00028080000C83B00080100000010000000BE
:1046B000000000000024F4000000000000000000E2
:1046C00000000000000000000000000000000000EA
:1046D00000000000000000000000000000000000DA
:0846E0000000000000000000D2
:040000050800019955
:00000001FF
